{
  "contractName": "lecturer",
  "abi": [
    {
      "constant": true,
      "inputs": [
        {
          "name": "",
          "type": "uint256"
        }
      ],
      "name": "grades",
      "outputs": [
        {
          "name": "",
          "type": "uint256"
        }
      ],
      "payable": false,
      "stateMutability": "view",
      "type": "function",
      "signature": "0x4b22fc62"
    },
    {
      "constant": true,
      "inputs": [
        {
          "name": "",
          "type": "uint256"
        }
      ],
      "name": "Students",
      "outputs": [
        {
          "name": "id",
          "type": "uint256"
        },
        {
          "name": "name",
          "type": "string"
        },
        {
          "name": "grade",
          "type": "uint256"
        }
      ],
      "payable": false,
      "stateMutability": "view",
      "type": "function",
      "signature": "0x57c8d71d"
    },
    {
      "constant": true,
      "inputs": [],
      "name": "average",
      "outputs": [
        {
          "name": "",
          "type": "uint256"
        }
      ],
      "payable": false,
      "stateMutability": "view",
      "type": "function",
      "signature": "0xb250717a"
    },
    {
      "constant": true,
      "inputs": [],
      "name": "studentCount",
      "outputs": [
        {
          "name": "",
          "type": "uint256"
        }
      ],
      "payable": false,
      "stateMutability": "view",
      "type": "function",
      "signature": "0xe581f9ee"
    },
    {
      "inputs": [],
      "payable": false,
      "stateMutability": "nonpayable",
      "type": "constructor",
      "signature": "constructor"
    },
    {
      "constant": false,
      "inputs": [
        {
          "name": "_id",
          "type": "uint256"
        },
        {
          "name": "_name",
          "type": "string"
        },
        {
          "name": "_grade",
          "type": "uint256"
        }
      ],
      "name": "addStudent",
      "outputs": [],
      "payable": false,
      "stateMutability": "nonpayable",
      "type": "function",
      "signature": "0xc1bea1db"
    },
    {
      "constant": true,
      "inputs": [],
      "name": "getAvg",
      "outputs": [
        {
          "name": "",
          "type": "uint256"
        }
      ],
      "payable": false,
      "stateMutability": "view",
      "type": "function",
      "signature": "0x390b6a4c"
    },
    {
      "constant": false,
      "inputs": [
        {
          "name": "_id",
          "type": "uint256"
        },
        {
          "name": "_name",
          "type": "string"
        },
        {
          "name": "_grade",
          "type": "uint256"
        }
      ],
      "name": "update",
      "outputs": [],
      "payable": false,
      "stateMutability": "nonpayable",
      "type": "function",
      "signature": "0xad841e07"
    }
  ],
  "bytecode": "0x608060405260008055600060015534801561001957600080fd5b5060028054600160a060020a031916331790556106768061003b6000396000f3fe6080604052600436106100825763ffffffff7c0100000000000000000000000000000000000000000000000000000000600035041663390b6a4c81146100875780634b22fc62146100b257806357c8d71d146100d2578063ad841e0714610101578063b250717a14610123578063c1bea1db14610138578063e581f9ee14610158575b600080fd5b34801561009357600080fd5b5061009c61016d565b6040516100a99190610560565b60405180910390f35b3480156100be57600080fd5b5061009c6100cd366004610491565b6101ae565b3480156100de57600080fd5b506100f26100ed366004610491565b6101c0565b6040516100a993929190610574565b34801561010d57600080fd5b5061012161011c3660046104b7565b61026d565b005b34801561012f57600080fd5b5061009c6102e7565b34801561014457600080fd5b506101216101533660046104b7565b6102ed565b34801561016457600080fd5b5061009c61038c565b600080805b600054811015610198576000818152600460205260409020549190910190600101610172565b50600054818115156101a657fe5b049150505b90565b60046020526000908152604090205481565b6003602090815260009182526040918290208054600180830180548651600293821615610100026000190190911692909204601f81018690048602830186019096528582529194929390929083018282801561025d5780601f106102325761010080835404028352916020019161025d565b820191906000526020600020905b81548152906001019060200180831161024057829003601f168201915b5050505050908060020154905083565b60025473ffffffffffffffffffffffffffffffffffffffff16331461029157600080fd5b6040805160608101825284815260208082018581528284018590526000878152600383529390932082518155925180519293926102d49260018501920190610392565b5060408201518160020155905050505050565b60015481565b60025473ffffffffffffffffffffffffffffffffffffffff16331461031157600080fd5b6040805160608101825284815260208082018581528284018590526000878152600383529390932082518155925180519293926103549260018501920190610392565b506040918201516002918201556000948552600360209081528286209091015485548652600490915290842055505080546001019055565b60005481565b828054600181600116156101000203166002900490600052602060002090601f016020900481019282601f106103d357805160ff1916838001178555610400565b82800160010185558215610400579182015b828111156104005782518255916020019190600101906103e5565b5061040c929150610410565b5090565b6101ab91905b8082111561040c5760008155600101610416565b6000601f8201831361043b57600080fd5b813561044e610449826105ca565b6105a3565b9150808252602083016020830185838301111561046a57600080fd5b6104758382846105f6565b50505092915050565b600061048a82356101ab565b9392505050565b6000602082840312156104a357600080fd5b60006104af848461047e565b949350505050565b6000806000606084860312156104cc57600080fd5b60006104d8868661047e565b935050602084013567ffffffffffffffff8111156104f557600080fd5b6105018682870161042a565b92505060406105128682870161047e565b9150509250925092565b6000610527826105f2565b80845261053b816020860160208601610602565b61054481610632565b9093016020019392505050565b61055a816101ab565b82525050565b6020810161056e8284610551565b92915050565b606081016105828286610551565b8181036020830152610594818561051c565b90506104af6040830184610551565b60405181810167ffffffffffffffff811182821017156105c257600080fd5b604052919050565b600067ffffffffffffffff8211156105e157600080fd5b506020601f91909101601f19160190565b5190565b82818337506000910152565b60005b8381101561061d578181015183820152602001610605565b8381111561062c576000848401525b50505050565b601f01601f19169056fea265627a7a72305820db5a0bcc90a0d768908e31241d3d241565735d3842aefaa1f9ea59bbf6e45a466c6578706572696d656e74616cf50037",
  "source": "pragma solidity ^0.5.0;\r\npragma experimental ABIEncoderV2;\r\n\r\ncontract lecturer{\r\n    uint public studentCount=0;\r\n    uint public average = 0 ;\r\n    address owner;\r\n    mapping (uint  => Student) public  Students;\r\n    mapping (uint => uint) public grades;\r\n    struct Student{    \r\n        uint id;\r\n        string name;\r\n        uint grade;\r\n    }\r\n    constructor()public{\r\n        owner = msg.sender;\r\n\r\n    }\r\n    modifier onlyowner(){\r\n       require(msg.sender == owner);\r\n       _;\r\n    }\r\n    function addStudent(uint  _id,string memory _name,uint _grade) public onlyowner{\r\n        Students[_id] = Student(_id,_name,_grade);\r\n        grades[studentCount] = Students[_id].grade;\r\n        studentCount++;\r\n    }\r\n    function getAvg() view public returns(uint){\r\n        uint sum = 0;\r\n        for(uint i = 0; i<studentCount; i++){\r\n             sum += grades[i];\r\n        }\r\n\r\n        return sum/studentCount;\r\n    }\r\n    function update(uint  _id,string memory _name,uint _grade)public onlyowner{\r\n        Students[_id] = Student(_id,_name,_grade);\r\n    }\r\n}",
  "sourcePath": "C:/Users/elior/Desktop/eth-lecturer/contracts/lecturer.sol",
  "compiler": {
    "name": "solc",
    "version": "0.5.0+commit.1d4f565a.Emscripten.clang"
  },
  "schemaVersion": "3.0.1",
  "updatedAt": "2019-08-05T13:09:21.560Z",
  "devdoc": {
    "methods": {}
  },
  "userdoc": {
    "methods": {}
  }
}